{
  "contractName": "AuthorityRegistry",
  "abi": [
    {
      "inputs": [
        {
          "internalType": "address",
          "name": "_owner",
          "type": "address"
        }
      ],
      "stateMutability": "nonpayable",
      "type": "constructor"
    },
    {
      "inputs": [
        {
          "internalType": "address",
          "name": "",
          "type": "address"
        }
      ],
      "name": "registry",
      "outputs": [
        {
          "internalType": "bool",
          "name": "",
          "type": "bool"
        }
      ],
      "stateMutability": "view",
      "type": "function",
      "constant": true
    },
    {
      "inputs": [
        {
          "internalType": "address",
          "name": "_publicKey",
          "type": "address"
        }
      ],
      "name": "addPublicKey",
      "outputs": [
        {
          "internalType": "bool",
          "name": "",
          "type": "bool"
        }
      ],
      "stateMutability": "nonpayable",
      "type": "function"
    },
    {
      "inputs": [
        {
          "internalType": "address",
          "name": "_publicKey",
          "type": "address"
        }
      ],
      "name": "deletePublicKey",
      "outputs": [],
      "stateMutability": "nonpayable",
      "type": "function"
    },
    {
      "inputs": [
        {
          "internalType": "address",
          "name": "_publicKey",
          "type": "address"
        }
      ],
      "name": "checkPublicKey",
      "outputs": [
        {
          "internalType": "bool",
          "name": "",
          "type": "bool"
        }
      ],
      "stateMutability": "view",
      "type": "function",
      "constant": true
    }
  ],
  "bytecode": "0x608060405234801561001057600080fd5b506040516106063803806106068339818101604052810190610032919061008d565b806000806101000a81548173ffffffffffffffffffffffffffffffffffffffff021916908373ffffffffffffffffffffffffffffffffffffffff16021790555050610108565b600081519050610087816100f1565b92915050565b6000602082840312156100a3576100a26100ec565b5b60006100b184828501610078565b91505092915050565b60006100c5826100cc565b9050919050565b600073ffffffffffffffffffffffffffffffffffffffff82169050919050565b600080fd5b6100fa816100ba565b811461010557600080fd5b50565b6104ef806101176000396000f3fe608060405234801561001057600080fd5b5060043610610069576000357c010000000000000000000000000000000000000000000000000000000090048063038defd71461006e5780631bf9b3251461009e5780636af92956146100ba578063d5838ca7146100ea575b600080fd5b6100886004803603810190610083919061038b565b61011a565b60405161009591906103ea565b60405180910390f35b6100b860048036038101906100b3919061038b565b61013a565b005b6100d460048036038101906100cf919061038b565b61021c565b6040516100e191906103ea565b60405180910390f35b61010460048036038101906100ff919061038b565b610283565b60405161011191906103ea565b60405180910390f35b60016020528060005260406000206000915054906101000a900460ff1681565b60008054906101000a900473ffffffffffffffffffffffffffffffffffffffff168073ffffffffffffffffffffffffffffffffffffffff163373ffffffffffffffffffffffffffffffffffffffff16146101c9576040517f08c379a00000000000000000000000000000000000000000000000000000000081526004016101c090610405565b60405180910390fd5b600160008373ffffffffffffffffffffffffffffffffffffffff1673ffffffffffffffffffffffffffffffffffffffff16815260200190815260200160002060006101000a81549060ff02191690555050565b6000600160008373ffffffffffffffffffffffffffffffffffffffff1673ffffffffffffffffffffffffffffffffffffffff16815260200190815260200160002060009054906101000a900460ff1615610279576001905061027e565b600090505b919050565b60008060009054906101000a900473ffffffffffffffffffffffffffffffffffffffff168073ffffffffffffffffffffffffffffffffffffffff163373ffffffffffffffffffffffffffffffffffffffff1614610315576040517f08c379a000000000000000000000000000000000000000000000000000000000815260040161030c90610405565b60405180910390fd5b60018060008573ffffffffffffffffffffffffffffffffffffffff1673ffffffffffffffffffffffffffffffffffffffff16815260200190815260200160002060006101000a81548160ff0219169083151502179055506001915050919050565b600081359050610385816104a2565b92915050565b6000602082840312156103a1576103a0610474565b5b60006103af84828501610376565b91505092915050565b6103c181610448565b82525050565b60006103d4601883610425565b91506103df82610479565b602082019050919050565b60006020820190506103ff60008301846103b8565b92915050565b6000602082019050818103600083015261041e816103c7565b9050919050565b600082825260208201905092915050565b600061044182610454565b9050919050565b60008115159050919050565b600073ffffffffffffffffffffffffffffffffffffffff82169050919050565b600080fd5b7f4f6e6c79206f776e65722063616e2063616c6c20746869730000000000000000600082015250565b6104ab81610436565b81146104b657600080fd5b5056fea2646970667358221220f2ea8d384292f2c7d88a32826dec7b9f1962ca0238774a16f83fa7f904eae58264736f6c63430008070033",
  "immutableReferences": {},
  "source": "// SPDX-License-Identifier: UNLICENSED\npragma solidity ^0.8.0;\n\ncontract AuthorityRegistry {\n\n    // registry of public keys of organisations that are registered \n    // to issue certificates to investors \n\n    address organisation; // ASIC address as an owner of the contract \n\n    mapping(address => bool) public registry; \n\n    constructor(address _owner) {\n        organisation = _owner; \n    }\n\n    // only ASIC an call functions \n    modifier onlyASIC(address _owner) { require(msg.sender == _owner, \"Only owner can call this\"); _; }\n\n    // ASIC adds pubic key to the registry \n    function addPublicKey(address _publicKey) public onlyASIC(organisation) returns(bool) {\n        registry[_publicKey] = true; \n        return true; \n    }\n\n    // ASIC removes public key from the registry \n    function deletePublicKey(address _publicKey) public onlyASIC(organisation) {\n        delete registry[_publicKey];\n    }\n\n    // other contracts can call this and see if the given key in regestry \n    function checkPublicKey(address _publicKey) external view returns(bool) {\n        if (registry[_publicKey]) { return true; }\n        return false; \n    }\n\n}",
  "sourcePath": "/Users/dariaschumm/Desktop/Contract/contracts/Registry.sol",
  "compiler": {
    "name": "solc",
    "version": "0.8.7+commit.e28d00a7.Emscripten.clang"
  },
  "schemaVersion": "3.4.6",
  "updatedAt": "2022-04-07T21:33:27.431Z",
  "networkType": "ethereum",
  "devdoc": {
    "kind": "dev",
    "methods": {},
    "version": 1
  },
  "userdoc": {
    "kind": "user",
    "methods": {},
    "version": 1
  }
}