{
  "contractName": "NeverPayShares",
  "abi": [
    {
      "inputs": [],
      "stateMutability": "nonpayable",
      "type": "constructor"
    },
    {
      "anonymous": false,
      "inputs": [
        {
          "indexed": true,
          "internalType": "address",
          "name": "owner",
          "type": "address"
        },
        {
          "indexed": true,
          "internalType": "address",
          "name": "spender",
          "type": "address"
        },
        {
          "indexed": false,
          "internalType": "uint256",
          "name": "value",
          "type": "uint256"
        }
      ],
      "name": "Approval",
      "type": "event"
    },
    {
      "anonymous": false,
      "inputs": [
        {
          "indexed": true,
          "internalType": "address",
          "name": "from",
          "type": "address"
        },
        {
          "indexed": true,
          "internalType": "address",
          "name": "to",
          "type": "address"
        },
        {
          "indexed": false,
          "internalType": "uint256",
          "name": "value",
          "type": "uint256"
        }
      ],
      "name": "Transfer",
      "type": "event"
    },
    {
      "anonymous": false,
      "inputs": [
        {
          "indexed": false,
          "internalType": "address",
          "name": "bidder",
          "type": "address"
        },
        {
          "indexed": false,
          "internalType": "uint256",
          "name": "refund",
          "type": "uint256"
        }
      ],
      "name": "refundIssued",
      "type": "event"
    },
    {
      "anonymous": false,
      "inputs": [
        {
          "indexed": false,
          "internalType": "uint256",
          "name": "balance",
          "type": "uint256"
        },
        {
          "indexed": false,
          "internalType": "address",
          "name": "bidder",
          "type": "address"
        },
        {
          "indexed": false,
          "internalType": "uint256",
          "name": "shares",
          "type": "uint256"
        },
        {
          "indexed": false,
          "internalType": "uint256",
          "name": "refund",
          "type": "uint256"
        },
        {
          "indexed": false,
          "internalType": "bool",
          "name": "proof",
          "type": "bool"
        }
      ],
      "name": "sharesSend",
      "type": "event"
    },
    {
      "inputs": [
        {
          "internalType": "address",
          "name": "owner",
          "type": "address"
        },
        {
          "internalType": "address",
          "name": "spender",
          "type": "address"
        }
      ],
      "name": "allowance",
      "outputs": [
        {
          "internalType": "uint256",
          "name": "",
          "type": "uint256"
        }
      ],
      "stateMutability": "view",
      "type": "function"
    },
    {
      "inputs": [
        {
          "internalType": "address",
          "name": "spender",
          "type": "address"
        },
        {
          "internalType": "uint256",
          "name": "amount",
          "type": "uint256"
        }
      ],
      "name": "approve",
      "outputs": [
        {
          "internalType": "bool",
          "name": "",
          "type": "bool"
        }
      ],
      "stateMutability": "nonpayable",
      "type": "function"
    },
    {
      "inputs": [
        {
          "internalType": "address",
          "name": "account",
          "type": "address"
        }
      ],
      "name": "balanceOf",
      "outputs": [
        {
          "internalType": "uint256",
          "name": "",
          "type": "uint256"
        }
      ],
      "stateMutability": "view",
      "type": "function"
    },
    {
      "inputs": [],
      "name": "decimals",
      "outputs": [
        {
          "internalType": "uint8",
          "name": "",
          "type": "uint8"
        }
      ],
      "stateMutability": "view",
      "type": "function"
    },
    {
      "inputs": [
        {
          "internalType": "address",
          "name": "spender",
          "type": "address"
        },
        {
          "internalType": "uint256",
          "name": "subtractedValue",
          "type": "uint256"
        }
      ],
      "name": "decreaseAllowance",
      "outputs": [
        {
          "internalType": "bool",
          "name": "",
          "type": "bool"
        }
      ],
      "stateMutability": "nonpayable",
      "type": "function"
    },
    {
      "inputs": [
        {
          "internalType": "address",
          "name": "spender",
          "type": "address"
        },
        {
          "internalType": "uint256",
          "name": "addedValue",
          "type": "uint256"
        }
      ],
      "name": "increaseAllowance",
      "outputs": [
        {
          "internalType": "bool",
          "name": "",
          "type": "bool"
        }
      ],
      "stateMutability": "nonpayable",
      "type": "function"
    },
    {
      "inputs": [],
      "name": "name",
      "outputs": [
        {
          "internalType": "string",
          "name": "",
          "type": "string"
        }
      ],
      "stateMutability": "view",
      "type": "function"
    },
    {
      "inputs": [],
      "name": "symbol",
      "outputs": [
        {
          "internalType": "string",
          "name": "",
          "type": "string"
        }
      ],
      "stateMutability": "view",
      "type": "function"
    },
    {
      "inputs": [],
      "name": "totalSupply",
      "outputs": [
        {
          "internalType": "uint256",
          "name": "",
          "type": "uint256"
        }
      ],
      "stateMutability": "view",
      "type": "function"
    },
    {
      "inputs": [
        {
          "internalType": "address",
          "name": "to",
          "type": "address"
        },
        {
          "internalType": "uint256",
          "name": "amount",
          "type": "uint256"
        }
      ],
      "name": "transfer",
      "outputs": [
        {
          "internalType": "bool",
          "name": "",
          "type": "bool"
        }
      ],
      "stateMutability": "nonpayable",
      "type": "function"
    },
    {
      "inputs": [
        {
          "internalType": "address",
          "name": "from",
          "type": "address"
        },
        {
          "internalType": "address",
          "name": "to",
          "type": "address"
        },
        {
          "internalType": "uint256",
          "name": "amount",
          "type": "uint256"
        }
      ],
      "name": "transferFrom",
      "outputs": [
        {
          "internalType": "bool",
          "name": "",
          "type": "bool"
        }
      ],
      "stateMutability": "nonpayable",
      "type": "function"
    },
    {
      "inputs": [
        {
          "internalType": "uint256",
          "name": "_index",
          "type": "uint256"
        }
      ],
      "name": "getInvestors",
      "outputs": [
        {
          "internalType": "address",
          "name": "",
          "type": "address"
        },
        {
          "internalType": "uint256",
          "name": "",
          "type": "uint256"
        },
        {
          "internalType": "uint256",
          "name": "",
          "type": "uint256"
        },
        {
          "internalType": "uint256",
          "name": "",
          "type": "uint256"
        }
      ],
      "stateMutability": "view",
      "type": "function"
    },
    {
      "inputs": [
        {
          "internalType": "address[]",
          "name": "_bidder",
          "type": "address[]"
        },
        {
          "internalType": "uint256[]",
          "name": "_timestamp",
          "type": "uint256[]"
        },
        {
          "internalType": "uint256[]",
          "name": "_shares",
          "type": "uint256[]"
        },
        {
          "internalType": "uint256[]",
          "name": "_price",
          "type": "uint256[]"
        }
      ],
      "name": "loadInvestors",
      "outputs": [],
      "stateMutability": "nonpayable",
      "type": "function"
    },
    {
      "inputs": [],
      "name": "distributeShares",
      "outputs": [],
      "stateMutability": "payable",
      "type": "function"
    },
    {
      "inputs": [],
      "name": "transferPayment",
      "outputs": [],
      "stateMutability": "payable",
      "type": "function"
    }
  ],
  "bytecode": "0x60806040523480156200001157600080fd5b506040518060400160405280600f81526020017f4e6576657250617920546f6b656e7300000000000000000000000000000000008152506040518060400160405280600381526020017f4e505400000000000000000000000000000000000000000000000000000000008152508160039080519060200190620000969291906200026a565b508060049080519060200190620000af9291906200026a565b505050620000cf33612710620000d5640100000000026401000000009004565b620004c6565b600073ffffffffffffffffffffffffffffffffffffffff168273ffffffffffffffffffffffffffffffffffffffff16141562000148576040517f08c379a00000000000000000000000000000000000000000000000000000000081526004016200013f9062000352565b60405180910390fd5b620001656000838362000260640100000000026401000000009004565b8060026000828254620001799190620003a2565b92505081905550806000808473ffffffffffffffffffffffffffffffffffffffff1673ffffffffffffffffffffffffffffffffffffffff1681526020019081526020016000206000828254620001d09190620003a2565b925050819055508173ffffffffffffffffffffffffffffffffffffffff16600073ffffffffffffffffffffffffffffffffffffffff167fddf252ad1be2c89b69c2b068fc378daa952ba7f163c4a11628f55a4df523b3ef8360405162000237919062000374565b60405180910390a36200025c6000838362000265640100000000026401000000009004565b5050565b505050565b505050565b828054620002789062000409565b90600052602060002090601f0160209004810192826200029c5760008555620002e8565b82601f10620002b757805160ff1916838001178555620002e8565b82800160010185558215620002e8579182015b82811115620002e7578251825591602001919060010190620002ca565b5b509050620002f79190620002fb565b5090565b5b8082111562000316576000816000905550600101620002fc565b5090565b600062000329601f8362000391565b915062000336826200049d565b602082019050919050565b6200034c81620003ff565b82525050565b600060208201905081810360008301526200036d816200031a565b9050919050565b60006020820190506200038b600083018462000341565b92915050565b600082825260208201905092915050565b6000620003af82620003ff565b9150620003bc83620003ff565b9250827fffffffffffffffffffffffffffffffffffffffffffffffffffffffffffffffff03821115620003f457620003f36200043f565b5b828201905092915050565b6000819050919050565b600060028204905060018216806200042257607f821691505b602082108114156200043957620004386200046e565b5b50919050565b7f4e487b7100000000000000000000000000000000000000000000000000000000600052601160045260246000fd5b7f4e487b7100000000000000000000000000000000000000000000000000000000600052602260045260246000fd5b7f45524332303a206d696e7420746f20746865207a65726f206164647265737300600082015250565b6124e080620004d66000396000f3fe608060405260043610610105576000357c010000000000000000000000000000000000000000000000000000000090048063429e3846116100a757806395d89b411161007657806395d89b41146102fc578063a457c2d714610327578063a9059cbb14610364578063dd62ed3e146103a157610105565b8063429e3846146102825780634cc80a621461028c57806370a08231146102b557806394329b75146102f257610105565b806318160ddd116100e357806318160ddd146101b257806323b872dd146101dd578063313ce5671461021a578063395093511461024557610105565b806306fdde031461010a578063095ea7b3146101355780631139de5514610172575b600080fd5b34801561011657600080fd5b5061011f6103de565b60405161012c9190611ca6565b60405180910390f35b34801561014157600080fd5b5061015c600480360381019061015791906118f9565b610470565b6040516101699190611c8b565b60405180910390f35b34801561017e57600080fd5b5061019960048036038101906101949190611a10565b610493565b6040516101a99493929190611c46565b60405180910390f35b3480156101be57600080fd5b506101c7610560565b6040516101d49190611dc8565b60405180910390f35b3480156101e957600080fd5b5061020460048036038101906101ff91906118a6565b61056a565b6040516102119190611c8b565b60405180910390f35b34801561022657600080fd5b5061022f610599565b60405161023c9190611e36565b60405180910390f35b34801561025157600080fd5b5061026c600480360381019061026791906118f9565b6105a2565b6040516102799190611c8b565b60405180910390f35b61028a61064c565b005b34801561029857600080fd5b506102b360048036038101906102ae9190611939565b610978565b005b3480156102c157600080fd5b506102dc60048036038101906102d79190611839565b610d0b565b6040516102e99190611dc8565b60405180910390f35b6102fa610d53565b005b34801561030857600080fd5b50610311610e41565b60405161031e9190611ca6565b60405180910390f35b34801561033357600080fd5b5061034e600480360381019061034991906118f9565b610ed3565b60405161035b9190611c8b565b60405180910390f35b34801561037057600080fd5b5061038b600480360381019061038691906118f9565b610fbd565b6040516103989190611c8b565b60405180910390f35b3480156103ad57600080fd5b506103c860048036038101906103c39190611866565b610fe0565b6040516103d59190611dc8565b60405180910390f35b6060600380546103ed90612056565b80601f016020809104026020016040519081016040528092919081815260200182805461041990612056565b80156104665780601f1061043b57610100808354040283529160200191610466565b820191906000526020600020905b81548152906001019060200180831161044957829003601f168201915b5050505050905090565b60008061047b611067565b905061048881858561106f565b600191505092915050565b600080600080600985815481106104ad576104ac61218e565b5b906000526020600020906005020160000160009054906101000a900473ffffffffffffffffffffffffffffffffffffffff16600986815481106104f3576104f261218e565b5b906000526020600020906005020160010154600987815481106105195761051861218e565b5b9060005260206000209060050201600201546009888154811061053f5761053e61218e565b5b90600052602060002090600502016003015493509350935093509193509193565b6000600254905090565b600080610575611067565b905061058285828561123a565b61058d8585856112c6565b60019150509392505050565b60006012905090565b6000806105ad611067565b9050610641818585600160008673ffffffffffffffffffffffffffffffffffffffff1673ffffffffffffffffffffffffffffffffffffffff16815260200190815260200160002060008973ffffffffffffffffffffffffffffffffffffffff1673ffffffffffffffffffffffffffffffffffffffff1681526020019081526020016000205461063c9190611eea565b61106f565b600191505092915050565b600560019054906101000a900473ffffffffffffffffffffffffffffffffffffffff168073ffffffffffffffffffffffffffffffffffffffff163373ffffffffffffffffffffffffffffffffffffffff16146106a757600080fd5b6007548042116106b657600080fd5b600560009054906101000a900460ff16156106d057600080fd5b6001600560006101000a81548160ff0219169083151502179055506000600980549050905060008060005b8381101561095557600061070e33610d0b565b9050600081141561071f5750610955565b6000806000600985815481106107385761073761218e565b5b906000526020600020906005020160000160009054906101000a900473ffffffffffffffffffffffffffffffffffffffff166009868154811061077e5761077d61218e565b5b906000526020600020906005020160020154600987815481106107a4576107a361218e565b5b90600052602060002090600502016003015492509250925083821161080d576107cd8383610fbd565b506001600986815481106107e4576107e361218e565b5b906000526020600020906005020160040160006101000a81548160ff0219169083151502179055505b838211156108cd5783826108219190611f9a565b965061082d8388610fbd565b506001600986815481106108445761084361218e565b5b906000526020600020906005020160040160006101000a81548160ff0219169083151502179055508087836108799190611f9a565b6108839190611f40565b95508273ffffffffffffffffffffffffffffffffffffffff166108fc879081150290604051600060405180830381858888f193505050501580156108cb573d6000803e3d6000fd5b505b7f0b9ddc692c3aa7d9492975bee833fe869e4807c4e97e0cbea220577004ae80d08484848960098a815481106109065761090561218e565b5b906000526020600020906005020160040160009054906101000a900460ff16604051610936959493929190611de3565b60405180910390a150505050808061094d906120b9565b9150506106fb565b505050506000600560006101000a81548160ff0219169083151502179055505050565b600560019054906101000a900473ffffffffffffffffffffffffffffffffffffffff168073ffffffffffffffffffffffffffffffffffffffff163373ffffffffffffffffffffffffffffffffffffffff16146109d357600080fd5b6007548042116109e257600080fd5b600560009054906101000a900460ff16156109fc57600080fd5b6001600560006101000a81548160ff02191690831515021790555060008651905060005b81811015610ce6576000888281518110610a3d57610a3c61218e565b5b6020026020010151888381518110610a5857610a5761218e565b5b6020026020010151888481518110610a7357610a7261218e565b5b6020026020010151888581518110610a8e57610a8d61218e565b5b6020026020010151604051602001610aa99493929190611bf8565b60405160208183030381529060405280519060200120905060011515610ae98a8481518110610adb57610ada61218e565b5b602002602001015183611547565b1515148015610b39575060011515610b35878481518110610b0d57610b0c61218e565b5b60200260200101518a8581518110610b2857610b2761218e565b5b6020026020010151611633565b1515145b610b78576040517f08c379a0000000000000000000000000000000000000000000000000000000008152600401610b6f90611d68565b60405180910390fd5b60096040518060a001604052808b8581518110610b9857610b9761218e565b5b602002602001015173ffffffffffffffffffffffffffffffffffffffff1681526020018a8581518110610bce57610bcd61218e565b5b60200260200101518152602001898581518110610bee57610bed61218e565b5b60200260200101518152602001888581518110610c0e57610c0d61218e565b5b6020026020010151815260200160001515815250908060018154018082558091505060019003906000526020600020906005020160009091909190915060008201518160000160006101000a81548173ffffffffffffffffffffffffffffffffffffffff021916908373ffffffffffffffffffffffffffffffffffffffff16021790555060208201518160010155604082015181600201556060820151816003015560808201518160040160006101000a81548160ff0219169083151502179055505050508080610cde906120b9565b915050610a20565b50506000600560006101000a81548160ff021916908315150217905550505050505050565b60008060008373ffffffffffffffffffffffffffffffffffffffff1673ffffffffffffffffffffffffffffffffffffffff168152602001908152602001600020549050919050565b600560019054906101000a900473ffffffffffffffffffffffffffffffffffffffff168073ffffffffffffffffffffffffffffffffffffffff163373ffffffffffffffffffffffffffffffffffffffff1614610dae57600080fd5b600854804211610dbd57600080fd5b600560019054906101000a900473ffffffffffffffffffffffffffffffffffffffff1673ffffffffffffffffffffffffffffffffffffffff166108fc3073ffffffffffffffffffffffffffffffffffffffff16319081150290604051600060405180830381858888f19350505050158015610e3c573d6000803e3d6000fd5b505050565b606060048054610e5090612056565b80601f0160208091040260200160405190810160405280929190818152602001828054610e7c90612056565b8015610ec95780601f10610e9e57610100808354040283529160200191610ec9565b820191906000526020600020905b815481529060010190602001808311610eac57829003601f168201915b5050505050905090565b600080610ede611067565b90506000600160008373ffffffffffffffffffffffffffffffffffffffff1673ffffffffffffffffffffffffffffffffffffffff16815260200190815260200160002060008673ffffffffffffffffffffffffffffffffffffffff1673ffffffffffffffffffffffffffffffffffffffff16815260200190815260200160002054905083811015610fa4576040517f08c379a0000000000000000000000000000000000000000000000000000000008152600401610f9b90611da8565b60405180910390fd5b610fb1828686840361106f565b60019250505092915050565b600080610fc8611067565b9050610fd58185856112c6565b600191505092915050565b6000600160008473ffffffffffffffffffffffffffffffffffffffff1673ffffffffffffffffffffffffffffffffffffffff16815260200190815260200160002060008373ffffffffffffffffffffffffffffffffffffffff1673ffffffffffffffffffffffffffffffffffffffff16815260200190815260200160002054905092915050565b600033905090565b600073ffffffffffffffffffffffffffffffffffffffff168373ffffffffffffffffffffffffffffffffffffffff1614156110df576040517f08c379a00000000000000000000000000000000000000000000000000000000081526004016110d690611d88565b60405180910390fd5b600073ffffffffffffffffffffffffffffffffffffffff168273ffffffffffffffffffffffffffffffffffffffff16141561114f576040517f08c379a000000000000000000000000000000000000000000000000000000000815260040161114690611ce8565b60405180910390fd5b80600160008573ffffffffffffffffffffffffffffffffffffffff1673ffffffffffffffffffffffffffffffffffffffff16815260200190815260200160002060008473ffffffffffffffffffffffffffffffffffffffff1673ffffffffffffffffffffffffffffffffffffffff168152602001908152602001600020819055508173ffffffffffffffffffffffffffffffffffffffff168373ffffffffffffffffffffffffffffffffffffffff167f8c5be1e5ebec7d5bd14f71427d1e84f3dd0314c0f7b2291e5b200ac8c7c3b9258360405161122d9190611dc8565b60405180910390a3505050565b60006112468484610fe0565b90507fffffffffffffffffffffffffffffffffffffffffffffffffffffffffffffffff81146112c057818110156112b2576040517f08c379a00000000000000000000000000000000000000000000000000000000081526004016112a990611d08565b60405180910390fd5b6112bf848484840361106f565b5b50505050565b600073ffffffffffffffffffffffffffffffffffffffff168373ffffffffffffffffffffffffffffffffffffffff161415611336576040517f08c379a000000000000000000000000000000000000000000000000000000000815260040161132d90611d48565b60405180910390fd5b600073ffffffffffffffffffffffffffffffffffffffff168273ffffffffffffffffffffffffffffffffffffffff1614156113a6576040517f08c379a000000000000000000000000000000000000000000000000000000000815260040161139d90611cc8565b60405180910390fd5b6113b18383836116c9565b60008060008573ffffffffffffffffffffffffffffffffffffffff1673ffffffffffffffffffffffffffffffffffffffff16815260200190815260200160002054905081811015611437576040517f08c379a000000000000000000000000000000000000000000000000000000000815260040161142e90611d28565b60405180910390fd5b8181036000808673ffffffffffffffffffffffffffffffffffffffff1673ffffffffffffffffffffffffffffffffffffffff16815260200190815260200160002081905550816000808573ffffffffffffffffffffffffffffffffffffffff1673ffffffffffffffffffffffffffffffffffffffff16815260200190815260200160002060008282546114ca9190611eea565b925050819055508273ffffffffffffffffffffffffffffffffffffffff168473ffffffffffffffffffffffffffffffffffffffff167fddf252ad1be2c89b69c2b068fc378daa952ba7f163c4a11628f55a4df523b3ef8460405161152e9190611dc8565b60405180910390a36115418484846116ce565b50505050565b600080600a60008573ffffffffffffffffffffffffffffffffffffffff1673ffffffffffffffffffffffffffffffffffffffff1681526020019081526020016000208054806020026020016040519081016040528092919081815260200182805480156115d357602002820191906000526020600020905b8154815260200190600101908083116115bf575b5050505050905060005b815181101561162657838282815181106115fa576115f961218e565b5b602002602001015114156116135760019250505061162d565b808061161e906120b9565b9150506115dd565b5060009150505b92915050565b600080600980549050141561164b57600190506116c3565b6000600960016009805490506116619190611f9a565b815481106116725761167161218e565b5b90600052602060002090600502019050838160030154106116975760019150506116c3565b8381600301541480156116ae575082816001015411155b156116bd5760019150506116c3565b60009150505b92915050565b505050565b505050565b60006116e66116e184611e76565b611e51565b90508083825260208201905082856020860282011115611709576117086121f1565b5b60005b85811015611739578161171f88826117b3565b84526020840193506020830192505060018101905061170c565b5050509392505050565b600061175661175184611ea2565b611e51565b90508083825260208201905082856020860282011115611779576117786121f1565b5b60005b858110156117a9578161178f8882611824565b84526020840193506020830192505060018101905061177c565b5050509392505050565b6000813590506117c28161247c565b92915050565b600082601f8301126117dd576117dc6121ec565b5b81356117ed8482602086016116d3565b91505092915050565b600082601f83011261180b5761180a6121ec565b5b813561181b848260208601611743565b91505092915050565b60008135905061183381612493565b92915050565b60006020828403121561184f5761184e6121fb565b5b600061185d848285016117b3565b91505092915050565b6000806040838503121561187d5761187c6121fb565b5b600061188b858286016117b3565b925050602061189c858286016117b3565b9150509250929050565b6000806000606084860312156118bf576118be6121fb565b5b60006118cd868287016117b3565b93505060206118de868287016117b3565b92505060406118ef86828701611824565b9150509250925092565b600080604083850312156119105761190f6121fb565b5b600061191e858286016117b3565b925050602061192f85828601611824565b9150509250929050565b60008060008060808587031215611953576119526121fb565b5b600085013567ffffffffffffffff811115611971576119706121f6565b5b61197d878288016117c8565b945050602085013567ffffffffffffffff81111561199e5761199d6121f6565b5b6119aa878288016117f6565b935050604085013567ffffffffffffffff8111156119cb576119ca6121f6565b5b6119d7878288016117f6565b925050606085013567ffffffffffffffff8111156119f8576119f76121f6565b5b611a04878288016117f6565b91505092959194509250565b600060208284031215611a2657611a256121fb565b5b6000611a3484828501611824565b91505092915050565b611a4681611fce565b82525050565b611a5d611a5882611fce565b612102565b82525050565b611a6c81611fe0565b82525050565b6000611a7d82611ece565b611a878185611ed9565b9350611a97818560208601612023565b611aa081612200565b840191505092915050565b6000611ab8602383611ed9565b9150611ac38261222a565b604082019050919050565b6000611adb602283611ed9565b9150611ae682612279565b604082019050919050565b6000611afe601d83611ed9565b9150611b09826122c8565b602082019050919050565b6000611b21602683611ed9565b9150611b2c826122f1565b604082019050919050565b6000611b44602583611ed9565b9150611b4f82612340565b604082019050919050565b6000611b67603683611ed9565b9150611b728261238f565b604082019050919050565b6000611b8a602483611ed9565b9150611b95826123de565b604082019050919050565b6000611bad602583611ed9565b9150611bb88261242d565b604082019050919050565b611bcc8161200c565b82525050565b611be3611bde8261200c565b612126565b82525050565b611bf281612016565b82525050565b6000611c048287611a4c565b601482019150611c148286611bd2565b602082019150611c248285611bd2565b602082019150611c348284611bd2565b60208201915081905095945050505050565b6000608082019050611c5b6000830187611a3d565b611c686020830186611bc3565b611c756040830185611bc3565b611c826060830184611bc3565b95945050505050565b6000602082019050611ca06000830184611a63565b92915050565b60006020820190508181036000830152611cc08184611a72565b905092915050565b60006020820190508181036000830152611ce181611aab565b9050919050565b60006020820190508181036000830152611d0181611ace565b9050919050565b60006020820190508181036000830152611d2181611af1565b9050919050565b60006020820190508181036000830152611d4181611b14565b9050919050565b60006020820190508181036000830152611d6181611b37565b9050919050565b60006020820190508181036000830152611d8181611b5a565b9050919050565b60006020820190508181036000830152611da181611b7d565b9050919050565b60006020820190508181036000830152611dc181611ba0565b9050919050565b6000602082019050611ddd6000830184611bc3565b92915050565b600060a082019050611df86000830188611bc3565b611e056020830187611a3d565b611e126040830186611bc3565b611e1f6060830185611bc3565b611e2c6080830184611a63565b9695505050505050565b6000602082019050611e4b6000830184611be9565b92915050565b6000611e5b611e6c565b9050611e678282612088565b919050565b6000604051905090565b600067ffffffffffffffff821115611e9157611e906121bd565b5b602082029050602081019050919050565b600067ffffffffffffffff821115611ebd57611ebc6121bd565b5b602082029050602081019050919050565b600081519050919050565b600082825260208201905092915050565b6000611ef58261200c565b9150611f008361200c565b9250827fffffffffffffffffffffffffffffffffffffffffffffffffffffffffffffffff03821115611f3557611f34612130565b5b828201905092915050565b6000611f4b8261200c565b9150611f568361200c565b9250817fffffffffffffffffffffffffffffffffffffffffffffffffffffffffffffffff0483118215151615611f8f57611f8e612130565b5b828202905092915050565b6000611fa58261200c565b9150611fb08361200c565b925082821015611fc357611fc2612130565b5b828203905092915050565b6000611fd982611fec565b9050919050565b60008115159050919050565b600073ffffffffffffffffffffffffffffffffffffffff82169050919050565b6000819050919050565b600060ff82169050919050565b60005b83811015612041578082015181840152602081019050612026565b83811115612050576000848401525b50505050565b6000600282049050600182168061206e57607f821691505b602082108114156120825761208161215f565b5b50919050565b61209182612200565b810181811067ffffffffffffffff821117156120b0576120af6121bd565b5b80604052505050565b60006120c48261200c565b91507fffffffffffffffffffffffffffffffffffffffffffffffffffffffffffffffff8214156120f7576120f6612130565b5b600182019050919050565b600061210d82612114565b9050919050565b600061211f82612211565b9050919050565b6000819050919050565b7f4e487b7100000000000000000000000000000000000000000000000000000000600052601160045260246000fd5b7f4e487b7100000000000000000000000000000000000000000000000000000000600052602260045260246000fd5b7f4e487b7100000000000000000000000000000000000000000000000000000000600052603260045260246000fd5b7f4e487b7100000000000000000000000000000000000000000000000000000000600052604160045260246000fd5b600080fd5b600080fd5b600080fd5b600080fd5b6000601f19601f8301169050919050565b60006c0100000000000000000000000082029050919050565b7f45524332303a207472616e7366657220746f20746865207a65726f206164647260008201527f6573730000000000000000000000000000000000000000000000000000000000602082015250565b7f45524332303a20617070726f766520746f20746865207a65726f20616464726560008201527f7373000000000000000000000000000000000000000000000000000000000000602082015250565b7f45524332303a20696e73756666696369656e7420616c6c6f77616e6365000000600082015250565b7f45524332303a207472616e7366657220616d6f756e742065786365656473206260008201527f616c616e63650000000000000000000000000000000000000000000000000000602082015250565b7f45524332303a207472616e736665722066726f6d20746865207a65726f20616460008201527f6472657373000000000000000000000000000000000000000000000000000000602082015250565b7f43616e6e6f74207665726966792074686520696e636f6d696e67206269643a2060008201527f68617368206f72206f726465722069732077726f6e6700000000000000000000602082015250565b7f45524332303a20617070726f76652066726f6d20746865207a65726f2061646460008201527f7265737300000000000000000000000000000000000000000000000000000000602082015250565b7f45524332303a2064656372656173656420616c6c6f77616e63652062656c6f7760008201527f207a65726f000000000000000000000000000000000000000000000000000000602082015250565b61248581611fce565b811461249057600080fd5b50565b61249c8161200c565b81146124a757600080fd5b5056fea2646970667358221220f8c352fdc339bef9a9fc243c8882a63c1a5c5f25973da9ff73f145650bba7fd364736f6c63430008070033",
  "immutableReferences": {},
  "source": "// SPDX-License-Identifier: UNLICENSED\npragma solidity ^0.8.0;\n\nimport \"@openzeppelin/contracts/token/ERC20/ERC20.sol\";\nimport \"./Registry.sol\"; \n\ncontract NeverPayShares is ERC20 {\n    \n    bool internal locked;\n    address payable company;            // to receive payments \n    uint256 biddingEnd; \n    uint256 revealEnd;\n    uint256 claimEnd; \n\n    struct Investor {\n        address bidder;                 // investor address \n        uint256 timestamp;              // time the bid was placed \n        uint256 shares;                 // number of shares purchased\n        uint256 price;                  // price per share\n        bool proofOfShares;\n    }\n\n    Investor[] investors;               // add investors' bids infromation \n\n    mapping(address => bytes32[]) internal proofOfReveal; \n\n    // creates 10,000 shares for the company \n    constructor() ERC20(\"NeverPay Tokens\", \"NPT\") {\n        _mint(msg.sender,  10000); \n    }\n\n    event sharesSend(uint256 balance, address bidder, uint256 shares, uint256 refund, bool proof);\n    event refundIssued(address bidder, uint256 refund); \n\n    // only owner can call the function \n    modifier onlyOwner(address _owner) { require(msg.sender == _owner); _; }\n    // reveal bids only after this time \n    modifier onlyAfter(uint256 _time) { require(block.timestamp > _time); _; }\n    // withdraw bids only before this time \n    modifier onlyBefore(uint256 _time) { require(block.timestamp < _time); _;}\n    // lock against reentrancy \n    modifier lock() { \n        require(!locked); \n        locked = true; _; \n        locked = false;\n    }\n\n    /* COMPANY FUNCTIONS ----------------------------------------------------------------- */\n\n    /**\n     * @notice retrieves an investor from the array of investors \n     * @dev    can be called by anyone \n     * @param  _index requires an index of the invesotr in investors array \n     * @return address of the investor stored \n     * @return timestamp of the bid placed \n     * @return shares number of shares investor requested \n     * @return price price per share investor paid \n    **/\n    function getInvestors(uint256 _index) public view returns(address, uint256, uint256, uint256) {\n        return (investors[_index].bidder, investors[_index].timestamp, investors[_index].shares, investors[_index].price); \n    }\n\n\n    /**\n     * @notice loads sorted bids from off-chain to the investors array in a shape of Investor struct,\n               performs additional checks to verify that the bid was actually revealed by taking the\n               hash of values, and by verifying the insertion order to ensure bids are actually sorted\n     * @dev    called externally \n     * @dev    called only by the company owner \n     * @dev    called only after reveal deadline ends \n     * @param  _bidder array of addresses\n     * @param  _timestamp array of timestamps when the bid was originally placed\n     * @param  _shares array of shares \n     * @param  _price array of prices \n    **/\n    function loadInvestors(address[] memory _bidder, uint256[] memory _timestamp, uint256[] memory _shares, uint256[] memory _price) external onlyOwner(company) onlyAfter(revealEnd) lock() {\n        uint256 length = _bidder.length; \n        for (uint256 i = 0; i < length; i++) {\n            // generate hash with incoming infromation to check if it exists \n            bytes32 newHash = keccak256(abi.encodePacked(_bidder[i], _timestamp[i], _shares[i], _price[i])); \n            require(verifyBid(_bidder[i], newHash) == true && verifyOrder(_price[i], _timestamp[i]) == true, \"Cannot verify the incoming bid: hash or order is wrong\");\n            investors.push(Investor(_bidder[i], _timestamp[i], _shares[i], _price[i], false));\n        }\n    }\n\n\n    /**\n     * @notice helper function to verify that the bid was actually revealed and \n               contrains correct values, checks if the has of the bid exists in \n               the proofOfReveal mapping \n     * @dev    called only internally \n     * @dev    called from loadInvestor when \n     * @param  _bidder address\n     * @param  _bid the newly generate hash of incoming infromation \n     * @return bool true if such bid was revealed, false if no such bis exists \n    **/\n    function verifyBid(address _bidder, bytes32 _bid) internal view returns(bool) {\n        // get array of hashes for the incoming bidder and its length \n        bytes32[] memory proofs = proofOfReveal[_bidder]; \n        // if the hash in the array, then true else false\n        // iterate over stored hashes and check if validates to the same hash \n        for (uint256 i = 0; i < proofs.length; i++) { if (proofs[i] == _bid) { return true; } }\n        return false; \n    }\n\n\n    /**\n     * @notice helper function to verify the order at which bids are inserted, \n               works as verification and checks the last stored bid infromation \n               in investors array \n     * @dev    called only internally \n     * @dev    called from loadInvestor when bids are being loaded from off-chain \n     * @param  _price first sorting parameter \n     * @param  _timestamp second sorting parameter \n     * @return bool true if previous price is larger, false if not \n    **/\n    function verifyOrder(uint256 _price, uint256 _timestamp) internal view returns(bool) {\n        // first item to add\n        if (investors.length == 0) { return true; }\n        // find the last investor and compare its price and timestamp\n        Investor storage previous = investors[investors.length - 1]; \n        // check conditions \n        if (previous.price >= _price) { return true; }\n        if (previous.price == _price && previous.timestamp <= _timestamp) { return true; }\n        return false; \n    }\n\n\n    /**\n     * @notice transfer shares to the investors based on sorted prices, if not \n               enough shares, the refund is send to the bidder for partial shares.\n               Emits an event that confirms the shares have been sent to the bidder \n     * @dev    called externally \n     * @dev    called only by the company owner \n     * @dev    called only after reveal deadline ends \n     * @dev    using lock to prevent reentrancy \n    **/\n    function distributeShares() external payable onlyOwner(company) onlyAfter(revealEnd) lock() {\n        uint256 length = investors.length; \n        uint256 issuedShares; \n        uint256 refund; \n        \n        for (uint256 i = 0; i < length; i++) {\n            // check balance before proceeding \n            uint256 currentBalance = balanceOf(msg.sender);\n            // is there are no more shares left, exit \n            if (currentBalance == 0) { break; }\n            \n            (address bidder, uint256 shares, uint256 price) = (investors[i].bidder, investors[i].shares, investors[i].price); \n\n            // check current amount of shares before each transfer \n            // and transfer shares \n            if (shares <= currentBalance) {\n                transfer(bidder, shares);\n                investors[i].proofOfShares = true; \n            }\n            // when not enough balance, calculate how many shares can be issued\n            // refund the remaining value to the bidder \n            if (shares > currentBalance) {\n                issuedShares = shares - currentBalance; \n                transfer(bidder, issuedShares);\n                investors[i].proofOfShares = true; \n                refund = (shares - issuedShares) * price; \n                payable(bidder).transfer(refund); \n            }\n            emit sharesSend(currentBalance, bidder, shares, refund, investors[i].proofOfShares);\n        }\n    }\n\n    \n    /**\n     * @notice after sorting, issuing shares and refunds, the company can claim the\n               contract balance to transfer to their account \n     * @dev    called externally \n     * @dev    called only by the company owner \n     * @dev    called only after refund claim deadline ends \n    **/\n    function transferPayment() external payable onlyOwner(company) onlyAfter(claimEnd) {\n        company.transfer(address(this).balance); \n    }\n}\n\n\n\ncontract Auction is NeverPayShares {\n\n    address ASIC; \n\n    struct Bid {\n        bytes32 bid;                    // blind bid \n        uint256 timestamp;              // time when bid was added \n    } \n    \n    address[] bidders;                  // holds all the addresses who placed bid \n    mapping(address => Bid[]) bids;     // blinded bids \n\n    // set when bidding closes and bid revealed times, owner comapny address\n    constructor(address _ASIC, address payable _company, uint256 _biddingTime, uint256 _revealTime, uint256 _claimEnds) payable {\n        ASIC = _ASIC;\n        company = _company; \n        biddingEnd = block.timestamp + (_biddingTime * 1 days); \n        revealEnd = biddingEnd + (_revealTime * 1 days); \n        claimEnd = revealEnd + (_claimEnds * 1 days); \n    }\n\n    // sends the bids details off-chain \n    event bidDetails(address bidder, uint256 timestamp, uint256 shares, uint256 price); \n\n    /* BIDDER FUNCTIONS ------------------------------------------------------------------ */\n\n\n    /**\n     * @notice investor places blinded bid where bid is a hash of number of shares and price;\n               verifies that the bidder who is placing the bid actually the address owner by \n               generating a new hash using provided certificate and address of the caller; \n               signature of the CA is recovered by the certificate and signature;\n               signature then verified with ASIC \n     * @dev    called externally \n     * @dev    called only before bidding time ends \n     * @param  _cert investor's certificate signed by CA that he is sophisticated investor \n     * @param  _sig CA's signature for the certificate\n     * @param  _owner owner signed certificate to prove that he is account owner \n     * @param  _blindedBid the hash of bid \n    **/\n    function placeBid(bytes32 _cert, bytes memory _sig, bytes32 _owner, bytes32 _blindedBid) external onlyBefore(biddingEnd) {\n        require(_owner == keccak256(abi.encodePacked(_cert, msg.sender)), \"Caller is not the certificate owner\");\n        // derive the signer from provided certificate and verify \n        address signer = recoverSigner(_cert, _sig);\n        require(verifyAuthority(signer) == true, \"Investor is not sophisticated\");\n        // only authorised investors can place a bid \n        bids[msg.sender].push(Bid(_blindedBid, block.timestamp)); \n        bidders.push(msg.sender); \n    }\n\n\n    /**\n     * @notice retrieves a bid of a bidder by address\n     * @dev    anyone can call  \n     * @return Bids of the caller \n    **/\n    function getBid() public view returns(Bid[] memory) {\n        return bids[msg.sender]; \n    }\n\n\n    /**\n     * @notice helper functions used for testing off-chain \n     * @dev    anyone can call  \n     * @return number of how many bids the caller has \n    **/\n    // relevant only when all bids are related to one address \n    function getBidsLength() public view returns (uint256) {\n        return bids[msg.sender].length; \n    }\n\n\n    /**\n     * @notice withdraw a specific bid placed by bidder using bid hash (the same when bid placed);\n               iterate over all bids and find one matching bid hash to remove, once found, \n               delete it and move remaining bids up \n     * @dev    called externally \n     * @dev    called only before bidding time ends \n     * @param  _cert investor's certificate signed by CA that he is sophisticated investor \n     * @param  _owner owner signed certificate to prove that he is account owner \n     * @param  _ref bid hash to remove \n    **/\n    function withdrawBid(bytes32 _cert, bytes32 _owner, bytes32 _ref) external onlyBefore(biddingEnd) {\n        require(_owner == keccak256(abi.encodePacked(_cert, msg.sender)), \"Caller is not the certificate owner\");\n        uint256 length = bids[msg.sender].length; \n        uint256 index; \n        for (uint256 i = 0; i < length; i++) {\n            Bid storage bidCheck = bids[msg.sender][i]; \n            if (bidCheck.bid == _ref) {\n                index = i;\n                delete bids[msg.sender][i]; \n            }\n        }\n        for (uint256 j = index; j < length - 1; j++) {\n            bids[msg.sender][j] = bids[msg.sender][j + 1];\n        }\n        bids[msg.sender].pop();\n    }\n\n\n    /**\n     * @notice bidder reveal his bid by providing values to calculate the same hash \n               as was placed in Round 1; deposts full payment to the smart contract, \n               if the payment provided is larger than required, part of it is refunded;\n               the function accessing each value provided in shares and price one by \n               one and emits revealed bid details off-chain for future sorting; \n               the function also records the hash of values and stores for verification\n     * @dev    called externally \n     * @dev    called only after bidding time ends  \n     * @dev    called only before reveal time ends \n     * @param  _shares an array of all shares placed as blinded bids: e.g., [1, 2, 3]\n     * @param  _prices an array of all prices placed as blinded bids: e.g., [1, 2, 3]\n    **/\n    function reveal(uint256[] memory _shares, uint256[] memory _prices) external payable onlyAfter(biddingEnd) onlyBefore(revealEnd) {\n        uint256 length = bids[msg.sender].length;\n        uint256 requiredAmount; \n        uint256 refund; \n        \n        require(length != 0, \"Investor does not have bids\");\n        require(_shares.length == length, \"Not all shares provided\"); \n        require(_prices.length == length, \"Not all prices provided\"); \n        \n        for (uint256 i = 0; i < length; i++) {\n            Bid storage bidCheck = bids[msg.sender][i]; \n            (uint256 shares, uint256 price) = (_shares[i], _prices[i]); \n\n            require(price >= 1, \"Price is less then 1 ether\");\n            require(msg.value > requiredAmount, \"Not enough ehter for payment provided\");\n\n            // matching bid with provided values\n            if (bidCheck.bid == keccak256(abi.encodePacked(shares, price))) {\n                requiredAmount += (shares * price);\n                proofOfReveal[msg.sender].push(keccak256(abi.encodePacked(msg.sender, bidCheck.timestamp, shares, price))); \n                emit bidDetails(msg.sender, bidCheck.timestamp, shares, price); \n                // after checks make it impossible for the bidder to pay again\n                bidCheck.bid = bytes32(0);\n            }\n        }\n        // calculatr refund for each share and send change\n        if (msg.value > requiredAmount) { \n            refund = (msg.value / 1 ether) - requiredAmount; \n            payable(msg.sender).transfer(refund); \n        }\n    }\n\n\n    /* INVESTOR SHARES FUNCTIONS --------------------------------------------------------- */\n\n    /**\n     * @notice functions for investors to transfer shares to other addresses, checks the \n               current balance and transafers only when balance is more than 0 and shares\n               to send is less or equal to balance \n     * @dev    called externally \n     * @dev    called only after reveal ends \n    **/\n    function transferShares(address _to, uint256 _shares) external onlyAfter(revealEnd) {\n        uint256 balance = balanceOf(msg.sender); \n        require(balance > 0 && balance >= _shares, \"Not enough shares to transfer\");\n        transfer(_to, _shares);\n    }\n\n\n    /**\n     * @notice functions for investors to check how many shares they current own \n     * @dev    called externally \n     * @dev    called only after reveal ends \n     * @return balance or number of shares investor has \n    **/\n    function getSharesBalance() external view onlyAfter(revealEnd) returns(uint256) {\n        return balanceOf(msg.sender);\n    }\n\n\n    /**\n     * @notice function for investors to claim the refund for not issued shares \n     * @dev    called externally \n     * @dev    called only after reveal ends \n     * @dev    called only before claim ends \n     * @dev    using lock to prevent reentrancy \n    **/\n    function claimRefund() external payable onlyAfter(revealEnd) onlyBefore(claimEnd) lock() {\n        uint256 length = investors.length;\n        uint256 refund; \n        for (uint256 i = 0; i < length; i++) {\n            // for the bids that are set to false (did not receive shares)\n            if (investors[i].bidder == msg.sender && investors[i].proofOfShares == false) {\n                refund += (investors[i].shares * investors[i].price) * 1 ether;\n                // set to true, so that bidder can't claim refund again \n                investors[i].proofOfShares = true;\n            }\n        }\n        payable(msg.sender).transfer(refund); \n        emit refundIssued(msg.sender, refund / 1 ether);\n    }\n\n\n    /* COMPANY FUNCTIONS ----------------------------------------------------------------- */\n    \n    /**\n     * @notice clears all bid commitments that has not been open or not payed\n     * @dev    called externally \n     * @dev    called only after reveal ends \n     * @dev    called only by the owner \n    **/\n    function removeInvalidBids() external onlyOwner(company) onlyAfter(revealEnd) { \n        uint256 length = bidders.length; \n        for (uint256 i = 0; i < length; i++) {\n            delete bids[bidders[i]];\n        }\n        delete bidders; \n    }\n\n\n    /* VERIFICATION FUNCTIONS ------------------------------------------------------------ */\n\n    /**\n     * @notice functions recovers the signer of the certificate from the provided certificate \n               (message signed by authority) and signature \n     * @dev    called internally from placeBid function  \n     * @return signer address (authority who issued/signed the certificate to the bidder)\n    **/\n    // copyright: https://github.com/protofire/zeppelin-solidity/blob/master/contracts/ECRecovery.sol\n    function recoverSigner(bytes32 hash, bytes memory sig) internal pure returns(address) {\n        bytes32 r; bytes32 s; uint8 v;\n        //Check the signature length\n        if (sig.length != 65) { return (address(0)); }\n        assembly {\n            r := mload(add(sig, 32))\n            s := mload(add(sig, 64))\n            v := byte(0, mload(add(sig, 96)))\n        }\n        if (v < 27) { v += 27; }\n\n        // If the version is correct return the signer address\n        if (v != 27 && v != 28) { return (address(0)); } \n        else { return ecrecover(hash, v, r, s); }\n    }\n\n    /**\n     * @notice functions to verify the signature of the signer and that is it registered \n               as authority with ASIC; function calles function checkPublicKey in Registry \n               contract \n     * @dev    called internally from placeBid function  \n     * @return bool true if the signer is registered, false otherwise \n    **/\n    function verifyAuthority(address _signer) internal view returns(bool) {\n        AuthorityRegistry registry = AuthorityRegistry(ASIC);  \n        return registry.checkPublicKey(_signer);\n    }\n}\n\n\n",
  "sourcePath": "/Users/dariaschumm/Desktop/Contract/contracts/Auction.sol",
  "compiler": {
    "name": "solc",
    "version": "0.8.7+commit.e28d00a7.Emscripten.clang"
  },
  "schemaVersion": "3.4.6",
  "updatedAt": "2022-04-07T21:33:24.293Z",
  "devdoc": {
    "kind": "dev",
    "methods": {
      "allowance(address,address)": {
        "details": "See {IERC20-allowance}."
      },
      "approve(address,uint256)": {
        "details": "See {IERC20-approve}. NOTE: If `amount` is the maximum `uint256`, the allowance is not updated on `transferFrom`. This is semantically equivalent to an infinite approval. Requirements: - `spender` cannot be the zero address."
      },
      "balanceOf(address)": {
        "details": "See {IERC20-balanceOf}."
      },
      "decimals()": {
        "details": "Returns the number of decimals used to get its user representation. For example, if `decimals` equals `2`, a balance of `505` tokens should be displayed to a user as `5.05` (`505 / 10 ** 2`). Tokens usually opt for a value of 18, imitating the relationship between Ether and Wei. This is the value {ERC20} uses, unless this function is overridden; NOTE: This information is only used for _display_ purposes: it in no way affects any of the arithmetic of the contract, including {IERC20-balanceOf} and {IERC20-transfer}."
      },
      "decreaseAllowance(address,uint256)": {
        "details": "Atomically decreases the allowance granted to `spender` by the caller. This is an alternative to {approve} that can be used as a mitigation for problems described in {IERC20-approve}. Emits an {Approval} event indicating the updated allowance. Requirements: - `spender` cannot be the zero address. - `spender` must have allowance for the caller of at least `subtractedValue`."
      },
      "distributeShares()": {
        "details": "called externally called only by the company owner called only after reveal deadline ends using lock to prevent reentrancy *"
      },
      "getInvestors(uint256)": {
        "details": "can be called by anyone ",
        "params": {
          "_index": "requires an index of the invesotr in investors array "
        },
        "returns": {
          "_0": "address of the investor stored ",
          "_1": "timestamp of the bid placed ",
          "_2": "shares number of shares investor requested ",
          "_3": "price price per share investor paid *"
        }
      },
      "increaseAllowance(address,uint256)": {
        "details": "Atomically increases the allowance granted to `spender` by the caller. This is an alternative to {approve} that can be used as a mitigation for problems described in {IERC20-approve}. Emits an {Approval} event indicating the updated allowance. Requirements: - `spender` cannot be the zero address."
      },
      "loadInvestors(address[],uint256[],uint256[],uint256[])": {
        "details": "called externally called only by the company owner called only after reveal deadline ends ",
        "params": {
          "_bidder": "array of addresses",
          "_price": "array of prices *",
          "_shares": "array of shares ",
          "_timestamp": "array of timestamps when the bid was originally placed"
        }
      },
      "name()": {
        "details": "Returns the name of the token."
      },
      "symbol()": {
        "details": "Returns the symbol of the token, usually a shorter version of the name."
      },
      "totalSupply()": {
        "details": "See {IERC20-totalSupply}."
      },
      "transfer(address,uint256)": {
        "details": "See {IERC20-transfer}. Requirements: - `to` cannot be the zero address. - the caller must have a balance of at least `amount`."
      },
      "transferFrom(address,address,uint256)": {
        "details": "See {IERC20-transferFrom}. Emits an {Approval} event indicating the updated allowance. This is not required by the EIP. See the note at the beginning of {ERC20}. NOTE: Does not update the allowance if the current allowance is the maximum `uint256`. Requirements: - `from` and `to` cannot be the zero address. - `from` must have a balance of at least `amount`. - the caller must have allowance for ``from``'s tokens of at least `amount`."
      },
      "transferPayment()": {
        "details": "called externally called only by the company owner called only after refund claim deadline ends *"
      }
    },
    "version": 1
  },
  "userdoc": {
    "kind": "user",
    "methods": {
      "distributeShares()": {
        "notice": "transfer shares to the investors based on sorted prices, if not  enough shares, the refund is send to the bidder for partial shares. Emits an event that confirms the shares have been sent to the bidder "
      },
      "getInvestors(uint256)": {
        "notice": "retrieves an investor from the array of investors "
      },
      "loadInvestors(address[],uint256[],uint256[],uint256[])": {
        "notice": "loads sorted bids from off-chain to the investors array in a shape of Investor struct, performs additional checks to verify that the bid was actually revealed by taking the hash of values, and by verifying the insertion order to ensure bids are actually sorted"
      },
      "transferPayment()": {
        "notice": "after sorting, issuing shares and refunds, the company can claim the contract balance to transfer to their account "
      }
    },
    "version": 1
  }
}